{
  "_format": "hh-sol-artifact-1",
  "contractName": "DiscountNFTMarketplace",
  "sourceName": "src/backend/contracts/DiscountNFTMarketplace.sol",
  "abi": [
    {
      "inputs": [
        {
          "internalType": "address",
          "name": "_feeAccount",
          "type": "address"
        },
        {
          "internalType": "uint256",
          "name": "_feePercent",
          "type": "uint256"
        }
      ],
      "stateMutability": "nonpayable",
      "type": "constructor"
    },
    {
      "inputs": [
        {
          "internalType": "address",
          "name": "nftAddress",
          "type": "address"
        },
        {
          "internalType": "uint256",
          "name": "tokenId",
          "type": "uint256"
        }
      ],
      "name": "AlreadyListed",
      "type": "error"
    },
    {
      "inputs": [],
      "name": "NoProceeds",
      "type": "error"
    },
    {
      "inputs": [],
      "name": "NotApprovedForMarketplace",
      "type": "error"
    },
    {
      "inputs": [
        {
          "internalType": "address",
          "name": "nftAddress",
          "type": "address"
        },
        {
          "internalType": "uint256",
          "name": "tokenId",
          "type": "uint256"
        }
      ],
      "name": "NotListed",
      "type": "error"
    },
    {
      "inputs": [],
      "name": "NotOwner",
      "type": "error"
    },
    {
      "inputs": [],
      "name": "PriceMustBeAboveZero",
      "type": "error"
    },
    {
      "inputs": [
        {
          "internalType": "address",
          "name": "nftAddress",
          "type": "address"
        },
        {
          "internalType": "uint256",
          "name": "tokenId",
          "type": "uint256"
        },
        {
          "internalType": "uint256",
          "name": "price",
          "type": "uint256"
        }
      ],
      "name": "PriceNotMet",
      "type": "error"
    },
    {
      "anonymous": false,
      "inputs": [
        {
          "indexed": true,
          "internalType": "address",
          "name": "buyer",
          "type": "address"
        },
        {
          "indexed": true,
          "internalType": "address",
          "name": "seller",
          "type": "address"
        },
        {
          "indexed": true,
          "internalType": "address",
          "name": "nftAddress",
          "type": "address"
        },
        {
          "indexed": false,
          "internalType": "uint256",
          "name": "tokenId",
          "type": "uint256"
        },
        {
          "indexed": false,
          "internalType": "uint256",
          "name": "price",
          "type": "uint256"
        },
        {
          "indexed": false,
          "internalType": "uint256",
          "name": "exchangeFee",
          "type": "uint256"
        },
        {
          "indexed": false,
          "internalType": "uint256",
          "name": "royaltyFee",
          "type": "uint256"
        },
        {
          "indexed": false,
          "internalType": "uint256",
          "name": "earnings",
          "type": "uint256"
        }
      ],
      "name": "ItemBought",
      "type": "event"
    },
    {
      "anonymous": false,
      "inputs": [
        {
          "indexed": true,
          "internalType": "address",
          "name": "seller",
          "type": "address"
        },
        {
          "indexed": true,
          "internalType": "address",
          "name": "nftAddress",
          "type": "address"
        },
        {
          "indexed": true,
          "internalType": "uint256",
          "name": "tokenId",
          "type": "uint256"
        }
      ],
      "name": "ItemCanceled",
      "type": "event"
    },
    {
      "anonymous": false,
      "inputs": [
        {
          "indexed": true,
          "internalType": "address",
          "name": "seller",
          "type": "address"
        },
        {
          "indexed": true,
          "internalType": "address",
          "name": "nftAddress",
          "type": "address"
        },
        {
          "indexed": true,
          "internalType": "uint256",
          "name": "tokenId",
          "type": "uint256"
        },
        {
          "indexed": false,
          "internalType": "uint256",
          "name": "price",
          "type": "uint256"
        },
        {
          "indexed": false,
          "internalType": "uint256",
          "name": "discount",
          "type": "uint256"
        },
        {
          "indexed": false,
          "internalType": "uint256",
          "name": "royalty",
          "type": "uint256"
        },
        {
          "indexed": false,
          "internalType": "address",
          "name": "creator",
          "type": "address"
        }
      ],
      "name": "ItemListed",
      "type": "event"
    },
    {
      "inputs": [
        {
          "internalType": "address",
          "name": "nftAddress",
          "type": "address"
        },
        {
          "internalType": "uint256",
          "name": "tokenId",
          "type": "uint256"
        }
      ],
      "name": "buyItem",
      "outputs": [],
      "stateMutability": "payable",
      "type": "function"
    },
    {
      "inputs": [
        {
          "internalType": "address",
          "name": "nftAddress",
          "type": "address"
        },
        {
          "internalType": "uint256",
          "name": "tokenId",
          "type": "uint256"
        }
      ],
      "name": "cancelListing",
      "outputs": [],
      "stateMutability": "nonpayable",
      "type": "function"
    },
    {
      "inputs": [],
      "name": "feeAccount",
      "outputs": [
        {
          "internalType": "address",
          "name": "",
          "type": "address"
        }
      ],
      "stateMutability": "view",
      "type": "function"
    },
    {
      "inputs": [],
      "name": "feePercent",
      "outputs": [
        {
          "internalType": "uint256",
          "name": "",
          "type": "uint256"
        }
      ],
      "stateMutability": "view",
      "type": "function"
    },
    {
      "inputs": [
        {
          "internalType": "address",
          "name": "nftAddress",
          "type": "address"
        },
        {
          "internalType": "uint256",
          "name": "tokenId",
          "type": "uint256"
        }
      ],
      "name": "getListing",
      "outputs": [
        {
          "components": [
            {
              "internalType": "uint256",
              "name": "price",
              "type": "uint256"
            },
            {
              "internalType": "address",
              "name": "seller",
              "type": "address"
            },
            {
              "internalType": "uint256",
              "name": "royalty",
              "type": "uint256"
            },
            {
              "internalType": "address",
              "name": "creator",
              "type": "address"
            }
          ],
          "internalType": "struct DiscountNFTMarketplace.Listing",
          "name": "",
          "type": "tuple"
        }
      ],
      "stateMutability": "view",
      "type": "function"
    },
    {
      "inputs": [
        {
          "internalType": "address",
          "name": "seller",
          "type": "address"
        }
      ],
      "name": "getProceeds",
      "outputs": [
        {
          "internalType": "uint256",
          "name": "",
          "type": "uint256"
        }
      ],
      "stateMutability": "view",
      "type": "function"
    },
    {
      "inputs": [
        {
          "internalType": "address",
          "name": "nftAddress",
          "type": "address"
        },
        {
          "internalType": "uint256",
          "name": "tokenId",
          "type": "uint256"
        },
        {
          "internalType": "uint256",
          "name": "price",
          "type": "uint256"
        }
      ],
      "name": "listItem",
      "outputs": [],
      "stateMutability": "nonpayable",
      "type": "function"
    },
    {
      "inputs": [
        {
          "internalType": "address",
          "name": "nftAddress",
          "type": "address"
        },
        {
          "internalType": "uint256",
          "name": "tokenId",
          "type": "uint256"
        },
        {
          "internalType": "uint256",
          "name": "newPrice",
          "type": "uint256"
        }
      ],
      "name": "updateListing",
      "outputs": [],
      "stateMutability": "nonpayable",
      "type": "function"
    },
    {
      "inputs": [],
      "name": "withdrawProceeds",
      "outputs": [],
      "stateMutability": "nonpayable",
      "type": "function"
    }
  ],
  "bytecode": "0x60806040523480156200001157600080fd5b50604051620024cf380380620024cf8339818101604052810190620000379190620000bd565b600160008190555081600160006101000a81548173ffffffffffffffffffffffffffffffffffffffff021916908373ffffffffffffffffffffffffffffffffffffffff1602179055508060028190555050506200017b565b600081519050620000a08162000147565b92915050565b600081519050620000b78162000161565b92915050565b60008060408385031215620000d757620000d662000142565b5b6000620000e7858286016200008f565b9250506020620000fa85828601620000a6565b9150509250929050565b6000620001118262000118565b9050919050565b600073ffffffffffffffffffffffffffffffffffffffff82169050919050565b6000819050919050565b600080fd5b620001528162000104565b81146200015e57600080fd5b50565b6200016c8162000138565b81146200017857600080fd5b50565b612344806200018b6000396000f3fe6080604052600436106100865760003560e01c806389bfd38f1161005957806389bfd38f1461015b5780639038e693146101845780639f37092a1461019b578063b2ddee06146101b7578063f772adf1146101e057610086565b806330cfeda91461008b57806365e17c9d146100c85780637fd6f15c146100f357806388700d1c1461011e575b600080fd5b34801561009757600080fd5b506100b260048036038101906100ad9190611cd2565b610209565b6040516100bf9190612008565b60405180910390f35b3480156100d457600080fd5b506100dd610252565b6040516100ea9190611efb565b60405180910390f35b3480156100ff57600080fd5b50610108610278565b6040516101159190612008565b60405180910390f35b34801561012a57600080fd5b5061014560048036038101906101409190611d2c565b61027e565b6040516101529190611fed565b60405180910390f35b34801561016757600080fd5b50610182600480360381019061017d9190611d6c565b6103a9565b005b34801561019057600080fd5b50610199610b6f565b005b6101b560048036038101906101b09190611d2c565b610ce2565b005b3480156101c357600080fd5b506101de60048036038101906101d99190611d2c565b61130a565b005b3480156101ec57600080fd5b5061020760048036038101906102029190611d6c565b611688565b005b6000600460008373ffffffffffffffffffffffffffffffffffffffff1673ffffffffffffffffffffffffffffffffffffffff168152602001908152602001600020549050919050565b600160009054906101000a900473ffffffffffffffffffffffffffffffffffffffff1681565b60025481565b610286611c2a565b600360008473ffffffffffffffffffffffffffffffffffffffff1673ffffffffffffffffffffffffffffffffffffffff1681526020019081526020016000206000838152602001908152602001600020604051806080016040529081600082015481526020016001820160009054906101000a900473ffffffffffffffffffffffffffffffffffffffff1673ffffffffffffffffffffffffffffffffffffffff1673ffffffffffffffffffffffffffffffffffffffff168152602001600282015481526020016003820160009054906101000a900473ffffffffffffffffffffffffffffffffffffffff1673ffffffffffffffffffffffffffffffffffffffff1673ffffffffffffffffffffffffffffffffffffffff1681525050905092915050565b82826000600360008473ffffffffffffffffffffffffffffffffffffffff1673ffffffffffffffffffffffffffffffffffffffff1681526020019081526020016000206000838152602001908152602001600020604051806080016040529081600082015481526020016001820160009054906101000a900473ffffffffffffffffffffffffffffffffffffffff1673ffffffffffffffffffffffffffffffffffffffff1673ffffffffffffffffffffffffffffffffffffffff168152602001600282015481526020016003820160009054906101000a900473ffffffffffffffffffffffffffffffffffffffff1673ffffffffffffffffffffffffffffffffffffffff1673ffffffffffffffffffffffffffffffffffffffff168152505090506000816000015111156105165782826040517f4a5568d500000000000000000000000000000000000000000000000000000000815260040161050d929190611f4d565b60405180910390fd5b858533600083905060008173ffffffffffffffffffffffffffffffffffffffff16636352211e856040518263ffffffff1660e01b81526004016105599190612008565b60206040518083038186803b15801561057157600080fd5b505afa158015610585573d6000803e3d6000fd5b505050506040513d601f19601f820116820180604052508101906105a99190611cff565b90508073ffffffffffffffffffffffffffffffffffffffff168373ffffffffffffffffffffffffffffffffffffffff1614610610576040517f30cd747100000000000000000000000000000000000000000000000000000000815260040160405180910390fd5b60008b905060008a1161064f576040517fe1abbfc500000000000000000000000000000000000000000000000000000000815260040160405180910390fd5b60008c90503073ffffffffffffffffffffffffffffffffffffffff168173ffffffffffffffffffffffffffffffffffffffff1663081812fc8e6040518263ffffffff1660e01b81526004016106a49190612008565b60206040518083038186803b1580156106bc57600080fd5b505afa1580156106d0573d6000803e3d6000fd5b505050506040513d601f19601f820116820180604052508101906106f49190611cff565b73ffffffffffffffffffffffffffffffffffffffff1614610741576040517f4be3a2c500000000000000000000000000000000000000000000000000000000815260040160405180910390fd5b60405180608001604052808c81526020013373ffffffffffffffffffffffffffffffffffffffff1681526020018373ffffffffffffffffffffffffffffffffffffffff1663b8997a976040518163ffffffff1660e01b815260040160206040518083038186803b1580156107b457600080fd5b505afa1580156107c8573d6000803e3d6000fd5b505050506040513d601f19601f820116820180604052508101906107ec9190611dbf565b81526020018373ffffffffffffffffffffffffffffffffffffffff1663db5eb7026040518163ffffffff1660e01b815260040160206040518083038186803b15801561083757600080fd5b505afa15801561084b573d6000803e3d6000fd5b505050506040513d601f19601f8201168201806040525081019061086f9190611cff565b73ffffffffffffffffffffffffffffffffffffffff16815250600360008f73ffffffffffffffffffffffffffffffffffffffff1673ffffffffffffffffffffffffffffffffffffffff16815260200190815260200160002060008e81526020019081526020016000206000820151816000015560208201518160010160006101000a81548173ffffffffffffffffffffffffffffffffffffffff021916908373ffffffffffffffffffffffffffffffffffffffff1602179055506040820151816002015560608201518160030160006101000a81548173ffffffffffffffffffffffffffffffffffffffff021916908373ffffffffffffffffffffffffffffffffffffffff1602179055509050508b8d73ffffffffffffffffffffffffffffffffffffffff163373ffffffffffffffffffffffffffffffffffffffff167fcc6ae889223c0056843357a8c7aec2ec524fc9b67ea4b7906e366ac46058d9908e8673ffffffffffffffffffffffffffffffffffffffff16636b6f4a9d6040518163ffffffff1660e01b815260040160206040518083038186803b158015610a1457600080fd5b505afa158015610a28573d6000803e3d6000fd5b505050506040513d601f19601f82011682018060405250810190610a4c9190611dbf565b8773ffffffffffffffffffffffffffffffffffffffff1663b8997a976040518163ffffffff1660e01b815260040160206040518083038186803b158015610a9257600080fd5b505afa158015610aa6573d6000803e3d6000fd5b505050506040513d601f19601f82011682018060405250810190610aca9190611dbf565b8873ffffffffffffffffffffffffffffffffffffffff1663db5eb7026040518163ffffffff1660e01b815260040160206040518083038186803b158015610b1057600080fd5b505afa158015610b24573d6000803e3d6000fd5b505050506040513d601f19601f82011682018060405250810190610b489190611cff565b604051610b589493929190612023565b60405180910390a450505050505050505050505050565b6000600460003373ffffffffffffffffffffffffffffffffffffffff1673ffffffffffffffffffffffffffffffffffffffff16815260200190815260200160002054905060008111610bed576040517fc4d8fa8700000000000000000000000000000000000000000000000000000000815260040160405180910390fd5b6000600460003373ffffffffffffffffffffffffffffffffffffffff1673ffffffffffffffffffffffffffffffffffffffff1681526020019081526020016000208190555060003373ffffffffffffffffffffffffffffffffffffffff1682604051610c5890611ee6565b60006040518083038185875af1925050503d8060008114610c95576040519150601f19603f3d011682016040523d82523d6000602084013e610c9a565b606091505b5050905080610cde576040517f08c379a0000000000000000000000000000000000000000000000000000000008152600401610cd590611fad565b60405180910390fd5b5050565b81816000600360008473ffffffffffffffffffffffffffffffffffffffff1673ffffffffffffffffffffffffffffffffffffffff1681526020019081526020016000206000838152602001908152602001600020604051806080016040529081600082015481526020016001820160009054906101000a900473ffffffffffffffffffffffffffffffffffffffff1673ffffffffffffffffffffffffffffffffffffffff1673ffffffffffffffffffffffffffffffffffffffff168152602001600282015481526020016003820160009054906101000a900473ffffffffffffffffffffffffffffffffffffffff1673ffffffffffffffffffffffffffffffffffffffff1673ffffffffffffffffffffffffffffffffffffffff168152505090506000816000015111610e4e5782826040517f6831488c000000000000000000000000000000000000000000000000000000008152600401610e45929190611f4d565b60405180910390fd5b610e56611b86565b6000600360008773ffffffffffffffffffffffffffffffffffffffff1673ffffffffffffffffffffffffffffffffffffffff1681526020019081526020016000206000868152602001908152602001600020604051806080016040529081600082015481526020016001820160009054906101000a900473ffffffffffffffffffffffffffffffffffffffff1673ffffffffffffffffffffffffffffffffffffffff1673ffffffffffffffffffffffffffffffffffffffff168152602001600282015481526020016003820160009054906101000a900473ffffffffffffffffffffffffffffffffffffffff1673ffffffffffffffffffffffffffffffffffffffff1673ffffffffffffffffffffffffffffffffffffffff168152505090506000816000015190506000610f8c82600254611bd6565b90506000610f9e838560400151611bd6565b90506000610fc782610fb98534611c0a90919063ffffffff16565b611c0a90919063ffffffff16565b9050846000015134101561101a57898986600001516040517f7c93456500000000000000000000000000000000000000000000000000000000815260040161101193929190611f76565b60405180910390fd5b8260046000600160009054906101000a900473ffffffffffffffffffffffffffffffffffffffff1673ffffffffffffffffffffffffffffffffffffffff1673ffffffffffffffffffffffffffffffffffffffff168152602001908152602001600020600082825461108b91906120d7565b925050819055508060046000876020015173ffffffffffffffffffffffffffffffffffffffff1673ffffffffffffffffffffffffffffffffffffffff16815260200190815260200160002060008282546110e591906120d7565b925050819055508160046000876060015173ffffffffffffffffffffffffffffffffffffffff1673ffffffffffffffffffffffffffffffffffffffff168152602001908152602001600020600082825461113f91906120d7565b92505081905550600360008b73ffffffffffffffffffffffffffffffffffffffff1673ffffffffffffffffffffffffffffffffffffffff16815260200190815260200160002060008a81526020019081526020016000206000808201600090556001820160006101000a81549073ffffffffffffffffffffffffffffffffffffffff021916905560028201600090556003820160006101000a81549073ffffffffffffffffffffffffffffffffffffffff021916905550508973ffffffffffffffffffffffffffffffffffffffff166369e9cae18660200151338c6040518463ffffffff1660e01b815260040161123893929190611f16565b600060405180830381600087803b15801561125257600080fd5b505af1158015611266573d6000803e3d6000fd5b505050508973ffffffffffffffffffffffffffffffffffffffff16856020015173ffffffffffffffffffffffffffffffffffffffff163373ffffffffffffffffffffffffffffffffffffffff167f85b145b87fe9a25110cc3ba528d538a108fcc2f17019fe541ae62695cdc69f798c89600001518888886040516112ee959493929190612068565b60405180910390a45050505050611303611c20565b5050505050565b818133600083905060008173ffffffffffffffffffffffffffffffffffffffff16636352211e856040518263ffffffff1660e01b815260040161134d9190612008565b60206040518083038186803b15801561136557600080fd5b505afa158015611379573d6000803e3d6000fd5b505050506040513d601f19601f8201168201806040525081019061139d9190611cff565b90508073ffffffffffffffffffffffffffffffffffffffff168373ffffffffffffffffffffffffffffffffffffffff1614611404576040517f30cd747100000000000000000000000000000000000000000000000000000000815260040160405180910390fd5b86866000600360008473ffffffffffffffffffffffffffffffffffffffff1673ffffffffffffffffffffffffffffffffffffffff1681526020019081526020016000206000838152602001908152602001600020604051806080016040529081600082015481526020016001820160009054906101000a900473ffffffffffffffffffffffffffffffffffffffff1673ffffffffffffffffffffffffffffffffffffffff1673ffffffffffffffffffffffffffffffffffffffff168152602001600282015481526020016003820160009054906101000a900473ffffffffffffffffffffffffffffffffffffffff1673ffffffffffffffffffffffffffffffffffffffff1673ffffffffffffffffffffffffffffffffffffffff1681525050905060008160000151116115705782826040517f6831488c000000000000000000000000000000000000000000000000000000008152600401611567929190611f4d565b60405180910390fd5b600360008b73ffffffffffffffffffffffffffffffffffffffff1673ffffffffffffffffffffffffffffffffffffffff16815260200190815260200160002060008a81526020019081526020016000206000808201600090556001820160006101000a81549073ffffffffffffffffffffffffffffffffffffffff021916905560028201600090556003820160006101000a81549073ffffffffffffffffffffffffffffffffffffffff02191690555050888a73ffffffffffffffffffffffffffffffffffffffff163373ffffffffffffffffffffffffffffffffffffffff167f9ba1a3cb55ce8d63d072a886f94d2a744f50cddf82128e897d0661f5ec62315860405160405180910390a450505050505050505050565b82826000600360008473ffffffffffffffffffffffffffffffffffffffff1673ffffffffffffffffffffffffffffffffffffffff1681526020019081526020016000206000838152602001908152602001600020604051806080016040529081600082015481526020016001820160009054906101000a900473ffffffffffffffffffffffffffffffffffffffff1673ffffffffffffffffffffffffffffffffffffffff1673ffffffffffffffffffffffffffffffffffffffff168152602001600282015481526020016003820160009054906101000a900473ffffffffffffffffffffffffffffffffffffffff1673ffffffffffffffffffffffffffffffffffffffff1673ffffffffffffffffffffffffffffffffffffffff1681525050905060008160000151116117f45782826040517f6831488c0000000000000000000000000000000000000000000000000000000081526004016117eb929190611f4d565b60405180910390fd5b6117fc611b86565b858533600083905060008173ffffffffffffffffffffffffffffffffffffffff16636352211e856040518263ffffffff1660e01b815260040161183f9190612008565b60206040518083038186803b15801561185757600080fd5b505afa15801561186b573d6000803e3d6000fd5b505050506040513d601f19601f8201168201806040525081019061188f9190611cff565b90508073ffffffffffffffffffffffffffffffffffffffff168373ffffffffffffffffffffffffffffffffffffffff16146118f6576040517f30cd747100000000000000000000000000000000000000000000000000000000815260040160405180910390fd5b60008b905060008a11611935576040517fe1abbfc500000000000000000000000000000000000000000000000000000000815260040160405180910390fd5b89600360008e73ffffffffffffffffffffffffffffffffffffffff1673ffffffffffffffffffffffffffffffffffffffff16815260200190815260200160002060008d8152602001908152602001600020600001819055508a8c73ffffffffffffffffffffffffffffffffffffffff163373ffffffffffffffffffffffffffffffffffffffff167fcc6ae889223c0056843357a8c7aec2ec524fc9b67ea4b7906e366ac46058d9908d8573ffffffffffffffffffffffffffffffffffffffff16636b6f4a9d6040518163ffffffff1660e01b815260040160206040518083038186803b158015611a2457600080fd5b505afa158015611a38573d6000803e3d6000fd5b505050506040513d601f19601f82011682018060405250810190611a5c9190611dbf565b8673ffffffffffffffffffffffffffffffffffffffff1663b8997a976040518163ffffffff1660e01b815260040160206040518083038186803b158015611aa257600080fd5b505afa158015611ab6573d6000803e3d6000fd5b505050506040513d601f19601f82011682018060405250810190611ada9190611dbf565b8773ffffffffffffffffffffffffffffffffffffffff1663db5eb7026040518163ffffffff1660e01b815260040160206040518083038186803b158015611b2057600080fd5b505afa158015611b34573d6000803e3d6000fd5b505050506040513d601f19601f82011682018060405250810190611b589190611cff565b604051611b689493929190612023565b60405180910390a4505050505050611b7e611c20565b505050505050565b60026000541415611bcc576040517f08c379a0000000000000000000000000000000000000000000000000000000008152600401611bc390611fcd565b60405180910390fd5b6002600081905550565b600080606483611be6919061215e565b90506127108185611bf7919061215e565b611c01919061212d565b91505092915050565b60008183611c1891906121b8565b905092915050565b6001600081905550565b604051806080016040528060008152602001600073ffffffffffffffffffffffffffffffffffffffff16815260200160008152602001600073ffffffffffffffffffffffffffffffffffffffff1681525090565b600081359050611c8d816122e0565b92915050565b600081519050611ca2816122e0565b92915050565b600081359050611cb7816122f7565b92915050565b600081519050611ccc816122f7565b92915050565b600060208284031215611ce857611ce7612286565b5b6000611cf684828501611c7e565b91505092915050565b600060208284031215611d1557611d14612286565b5b6000611d2384828501611c93565b91505092915050565b60008060408385031215611d4357611d42612286565b5b6000611d5185828601611c7e565b9250506020611d6285828601611ca8565b9150509250929050565b600080600060608486031215611d8557611d84612286565b5b6000611d9386828701611c7e565b9350506020611da486828701611ca8565b9250506040611db586828701611ca8565b9150509250925092565b600060208284031215611dd557611dd4612286565b5b6000611de384828501611cbd565b91505092915050565b611df5816121ec565b82525050565b611e04816121ec565b82525050565b6000611e17600f836120c6565b9150611e228261228b565b602082019050919050565b6000611e3a6000836120bb565b9150611e45826122b4565b600082019050919050565b6000611e5d601f836120c6565b9150611e68826122b7565b602082019050919050565b608082016000820151611e896000850182611ec8565b506020820151611e9c6020850182611dec565b506040820151611eaf6040850182611ec8565b506060820151611ec26060850182611dec565b50505050565b611ed18161221e565b82525050565b611ee08161221e565b82525050565b6000611ef182611e2d565b9150819050919050565b6000602082019050611f106000830184611dfb565b92915050565b6000606082019050611f2b6000830186611dfb565b611f386020830185611dfb565b611f456040830184611ed7565b949350505050565b6000604082019050611f626000830185611dfb565b611f6f6020830184611ed7565b9392505050565b6000606082019050611f8b6000830186611dfb565b611f986020830185611ed7565b611fa56040830184611ed7565b949350505050565b60006020820190508181036000830152611fc681611e0a565b9050919050565b60006020820190508181036000830152611fe681611e50565b9050919050565b60006080820190506120026000830184611e73565b92915050565b600060208201905061201d6000830184611ed7565b92915050565b60006080820190506120386000830187611ed7565b6120456020830186611ed7565b6120526040830185611ed7565b61205f6060830184611dfb565b95945050505050565b600060a08201905061207d6000830188611ed7565b61208a6020830187611ed7565b6120976040830186611ed7565b6120a46060830185611ed7565b6120b16080830184611ed7565b9695505050505050565b600081905092915050565b600082825260208201905092915050565b60006120e28261221e565b91506120ed8361221e565b9250827fffffffffffffffffffffffffffffffffffffffffffffffffffffffffffffffff0382111561212257612121612228565b5b828201905092915050565b60006121388261221e565b91506121438361221e565b92508261215357612152612257565b5b828204905092915050565b60006121698261221e565b91506121748361221e565b9250817fffffffffffffffffffffffffffffffffffffffffffffffffffffffffffffffff04831182151516156121ad576121ac612228565b5b828202905092915050565b60006121c38261221e565b91506121ce8361221e565b9250828210156121e1576121e0612228565b5b828203905092915050565b60006121f7826121fe565b9050919050565b600073ffffffffffffffffffffffffffffffffffffffff82169050919050565b6000819050919050565b7f4e487b7100000000000000000000000000000000000000000000000000000000600052601160045260246000fd5b7f4e487b7100000000000000000000000000000000000000000000000000000000600052601260045260246000fd5b600080fd5b7f5472616e73666572206661696c65640000000000000000000000000000000000600082015250565b50565b7f5265656e7472616e637947756172643a207265656e7472616e742063616c6c00600082015250565b6122e9816121ec565b81146122f457600080fd5b50565b6123008161221e565b811461230b57600080fd5b5056fea2646970667358221220d7776a39cb297a44b6fc6b57dd8edc0ec51b2e60703a45e254704130369f6abf64736f6c63430008070033",
  "linkReferences": {},
  "deployedLinkReferences": {}
}