{
  "_format": "hh-sol-artifact-1",
  "contractName": "DiscountNFT",
  "sourceName": "src/backend/contracts/DiscountNFT.sol",
  "abi": [
    {
      "inputs": [
        {
          "internalType": "string",
          "name": "name_",
          "type": "string"
        },
        {
          "internalType": "string",
          "name": "symbol_",
          "type": "string"
        },
        {
          "internalType": "uint256",
          "name": "_discount",
          "type": "uint256"
        },
        {
          "internalType": "uint256",
          "name": "_royaltyFee",
          "type": "uint256"
        }
      ],
      "stateMutability": "nonpayable",
      "type": "constructor"
    },
    {
      "anonymous": false,
      "inputs": [
        {
          "indexed": true,
          "internalType": "address",
          "name": "owner",
          "type": "address"
        },
        {
          "indexed": true,
          "internalType": "address",
          "name": "approved",
          "type": "address"
        },
        {
          "indexed": true,
          "internalType": "uint256",
          "name": "tokenId",
          "type": "uint256"
        }
      ],
      "name": "Approval",
      "type": "event"
    },
    {
      "anonymous": false,
      "inputs": [
        {
          "indexed": true,
          "internalType": "address",
          "name": "owner",
          "type": "address"
        },
        {
          "indexed": true,
          "internalType": "address",
          "name": "operator",
          "type": "address"
        },
        {
          "indexed": false,
          "internalType": "bool",
          "name": "approved",
          "type": "bool"
        }
      ],
      "name": "ApprovalForAll",
      "type": "event"
    },
    {
      "anonymous": false,
      "inputs": [
        {
          "indexed": true,
          "internalType": "uint256",
          "name": "tokenId",
          "type": "uint256"
        }
      ],
      "name": "DiscountNFTMinted",
      "type": "event"
    },
    {
      "anonymous": false,
      "inputs": [
        {
          "indexed": true,
          "internalType": "address",
          "name": "from",
          "type": "address"
        },
        {
          "indexed": true,
          "internalType": "address",
          "name": "to",
          "type": "address"
        },
        {
          "indexed": true,
          "internalType": "uint256",
          "name": "tokenId",
          "type": "uint256"
        }
      ],
      "name": "Transfer",
      "type": "event"
    },
    {
      "inputs": [
        {
          "internalType": "address",
          "name": "to",
          "type": "address"
        },
        {
          "internalType": "uint256",
          "name": "tokenId",
          "type": "uint256"
        }
      ],
      "name": "approve",
      "outputs": [],
      "stateMutability": "nonpayable",
      "type": "function"
    },
    {
      "inputs": [
        {
          "internalType": "address",
          "name": "owner",
          "type": "address"
        }
      ],
      "name": "balanceOf",
      "outputs": [
        {
          "internalType": "uint256",
          "name": "",
          "type": "uint256"
        }
      ],
      "stateMutability": "view",
      "type": "function"
    },
    {
      "inputs": [],
      "name": "discount",
      "outputs": [
        {
          "internalType": "uint256",
          "name": "",
          "type": "uint256"
        }
      ],
      "stateMutability": "view",
      "type": "function"
    },
    {
      "inputs": [
        {
          "internalType": "uint256",
          "name": "tokenId",
          "type": "uint256"
        }
      ],
      "name": "exists",
      "outputs": [
        {
          "internalType": "bool",
          "name": "",
          "type": "bool"
        }
      ],
      "stateMutability": "view",
      "type": "function"
    },
    {
      "inputs": [
        {
          "internalType": "uint256",
          "name": "tokenId",
          "type": "uint256"
        }
      ],
      "name": "getApproved",
      "outputs": [
        {
          "internalType": "address",
          "name": "",
          "type": "address"
        }
      ],
      "stateMutability": "view",
      "type": "function"
    },
    {
      "inputs": [],
      "name": "getName",
      "outputs": [
        {
          "internalType": "string",
          "name": "",
          "type": "string"
        }
      ],
      "stateMutability": "view",
      "type": "function"
    },
    {
      "inputs": [],
      "name": "getTokenCounter",
      "outputs": [
        {
          "internalType": "uint256",
          "name": "",
          "type": "uint256"
        }
      ],
      "stateMutability": "view",
      "type": "function"
    },
    {
      "inputs": [
        {
          "internalType": "address",
          "name": "owner",
          "type": "address"
        },
        {
          "internalType": "address",
          "name": "operator",
          "type": "address"
        }
      ],
      "name": "isApprovedForAll",
      "outputs": [
        {
          "internalType": "bool",
          "name": "",
          "type": "bool"
        }
      ],
      "stateMutability": "view",
      "type": "function"
    },
    {
      "inputs": [],
      "name": "mintNFT",
      "outputs": [],
      "stateMutability": "nonpayable",
      "type": "function"
    },
    {
      "inputs": [],
      "name": "name",
      "outputs": [
        {
          "internalType": "string",
          "name": "",
          "type": "string"
        }
      ],
      "stateMutability": "view",
      "type": "function"
    },
    {
      "inputs": [
        {
          "internalType": "uint256",
          "name": "tokenId",
          "type": "uint256"
        }
      ],
      "name": "ownerOf",
      "outputs": [
        {
          "internalType": "address",
          "name": "",
          "type": "address"
        }
      ],
      "stateMutability": "view",
      "type": "function"
    },
    {
      "inputs": [],
      "name": "royaltyFee",
      "outputs": [
        {
          "internalType": "uint256",
          "name": "",
          "type": "uint256"
        }
      ],
      "stateMutability": "view",
      "type": "function"
    },
    {
      "inputs": [],
      "name": "royaltyOwner",
      "outputs": [
        {
          "internalType": "address",
          "name": "",
          "type": "address"
        }
      ],
      "stateMutability": "view",
      "type": "function"
    },
    {
      "inputs": [
        {
          "internalType": "address",
          "name": "from",
          "type": "address"
        },
        {
          "internalType": "address",
          "name": "to",
          "type": "address"
        },
        {
          "internalType": "uint256",
          "name": "tokenId",
          "type": "uint256"
        }
      ],
      "name": "safeTransferFrom",
      "outputs": [],
      "stateMutability": "nonpayable",
      "type": "function"
    },
    {
      "inputs": [
        {
          "internalType": "address",
          "name": "from",
          "type": "address"
        },
        {
          "internalType": "address",
          "name": "to",
          "type": "address"
        },
        {
          "internalType": "uint256",
          "name": "tokenId",
          "type": "uint256"
        },
        {
          "internalType": "bytes",
          "name": "data",
          "type": "bytes"
        }
      ],
      "name": "safeTransferFrom",
      "outputs": [],
      "stateMutability": "nonpayable",
      "type": "function"
    },
    {
      "inputs": [
        {
          "internalType": "address",
          "name": "operator",
          "type": "address"
        },
        {
          "internalType": "bool",
          "name": "approved",
          "type": "bool"
        }
      ],
      "name": "setApprovalForAll",
      "outputs": [],
      "stateMutability": "nonpayable",
      "type": "function"
    },
    {
      "inputs": [
        {
          "internalType": "bytes4",
          "name": "interfaceId",
          "type": "bytes4"
        }
      ],
      "name": "supportsInterface",
      "outputs": [
        {
          "internalType": "bool",
          "name": "",
          "type": "bool"
        }
      ],
      "stateMutability": "view",
      "type": "function"
    },
    {
      "inputs": [],
      "name": "symbol",
      "outputs": [
        {
          "internalType": "string",
          "name": "",
          "type": "string"
        }
      ],
      "stateMutability": "view",
      "type": "function"
    },
    {
      "inputs": [
        {
          "internalType": "uint256",
          "name": "tokenId",
          "type": "uint256"
        }
      ],
      "name": "tokenURI",
      "outputs": [
        {
          "internalType": "string",
          "name": "",
          "type": "string"
        }
      ],
      "stateMutability": "view",
      "type": "function"
    },
    {
      "inputs": [
        {
          "internalType": "address",
          "name": "from",
          "type": "address"
        },
        {
          "internalType": "address",
          "name": "to",
          "type": "address"
        },
        {
          "internalType": "uint256",
          "name": "tokenId",
          "type": "uint256"
        }
      ],
      "name": "transferFrom",
      "outputs": [],
      "stateMutability": "nonpayable",
      "type": "function"
    },
    {
      "inputs": [
        {
          "internalType": "address",
          "name": "_from",
          "type": "address"
        },
        {
          "internalType": "address",
          "name": "_to",
          "type": "address"
        },
        {
          "internalType": "uint256",
          "name": "tokenId",
          "type": "uint256"
        }
      ],
      "name": "transferNFT",
      "outputs": [],
      "stateMutability": "nonpayable",
      "type": "function"
    }
  ],
  "bytecode": "0x60c06040523480156200001157600080fd5b5060405162002ecc38038062002ecc833981810160405281019062000037919062000296565b838381600090805190602001906200005192919062000151565b5080600190805190602001906200006a92919062000151565b50505060008211620000b3576040517f08c379a0000000000000000000000000000000000000000000000000000000008152600401620000aa90620003b6565b60405180910390fd5b60008111620000f9576040517f08c379a0000000000000000000000000000000000000000000000000000000008152600401620000f09062000394565b60405180910390fd5b816006819055508060a081815250503373ffffffffffffffffffffffffffffffffffffffff1660808173ffffffffffffffffffffffffffffffffffffffff1660601b81525050600060078190555050505050620005e3565b8280546200015f9062000488565b90600052602060002090601f016020900481019282620001835760008555620001cf565b82601f106200019e57805160ff1916838001178555620001cf565b82800160010185558215620001cf579182015b82811115620001ce578251825591602001919060010190620001b1565b5b509050620001de9190620001e2565b5090565b5b80821115620001fd576000816000905550600101620001e3565b5090565b600062000218620002128462000401565b620003d8565b90508281526020810184848401111562000237576200023662000557565b5b6200024484828562000452565b509392505050565b600082601f83011262000264576200026362000552565b5b81516200027684826020860162000201565b91505092915050565b6000815190506200029081620005c9565b92915050565b60008060008060808587031215620002b357620002b262000561565b5b600085015167ffffffffffffffff811115620002d457620002d36200055c565b5b620002e2878288016200024c565b945050602085015167ffffffffffffffff8111156200030657620003056200055c565b5b62000314878288016200024c565b935050604062000327878288016200027f565b92505060606200033a878288016200027f565b91505092959194509250565b600062000355601f8362000437565b9150620003628262000577565b602082019050919050565b60006200037c601c8362000437565b91506200038982620005a0565b602082019050919050565b60006020820190508181036000830152620003af8162000346565b9050919050565b60006020820190508181036000830152620003d1816200036d565b9050919050565b6000620003e4620003f7565b9050620003f28282620004be565b919050565b6000604051905090565b600067ffffffffffffffff8211156200041f576200041e62000523565b5b6200042a8262000566565b9050602081019050919050565b600082825260208201905092915050565b6000819050919050565b60005b838110156200047257808201518184015260208101905062000455565b8381111562000482576000848401525b50505050565b60006002820490506001821680620004a157607f821691505b60208210811415620004b857620004b7620004f4565b5b50919050565b620004c98262000566565b810181811067ffffffffffffffff82111715620004eb57620004ea62000523565b5b80604052505050565b7f4e487b7100000000000000000000000000000000000000000000000000000000600052602260045260246000fd5b7f4e487b7100000000000000000000000000000000000000000000000000000000600052604160045260246000fd5b600080fd5b600080fd5b600080fd5b600080fd5b6000601f19601f8301169050919050565b7f526f79616c747920666565206d757374206265206d6f7265207468616e203000600082015250565b7f446973636f756e74206d757374206265206d6f7265207468616e203000000000600082015250565b620005d48162000448565b8114620005e057600080fd5b50565b60805160601c60a0516128c06200060c6000396000610a4001526000610acc01526128c06000f3fe608060405234801561001057600080fd5b50600436106101375760003560e01c806369e9cae1116100b8578063a22cb4651161007c578063a22cb4651461033c578063b88d4fde14610358578063b8997a9714610374578063c87b56dd14610392578063db5eb702146103c2578063e985e9c5146103e057610137565b806369e9cae1146102965780636b6f4a9d146102b25780636e02007d146102d057806370a08231146102ee57806395d89b411461031e57610137565b806317d7de7c116100ff57806317d7de7c146101e057806323b872dd146101fe57806342842e0e1461021a5780634f558e79146102365780636352211e1461026657610137565b806301ffc9a71461013c57806306fdde031461016c578063081812fc1461018a578063095ea7b3146101ba57806314f710fe146101d6575b600080fd5b61015660048036038101906101519190611d29565b610410565b604051610163919061208c565b60405180910390f35b6101746104f2565b60405161018191906120a7565b60405180910390f35b6101a4600480360381019061019f9190611d83565b610584565b6040516101b19190612025565b60405180910390f35b6101d460048036038101906101cf9190611ce9565b6105ca565b005b6101de6106e2565b005b6101e8610734565b6040516101f591906120a7565b60405180910390f35b61021860048036038101906102139190611bd3565b610743565b005b610234600480360381019061022f9190611bd3565b6107a3565b005b610250600480360381019061024b9190611d83565b6107c3565b60405161025d919061208c565b60405180910390f35b610280600480360381019061027b9190611d83565b6107d5565b60405161028d9190612025565b60405180910390f35b6102b060048036038101906102ab9190611bd3565b61085c565b005b6102ba61086c565b6040516102c79190612229565b60405180910390f35b6102d8610872565b6040516102e59190612229565b60405180910390f35b61030860048036038101906103039190611b66565b61087c565b6040516103159190612229565b60405180910390f35b610326610934565b60405161033391906120a7565b60405180910390f35b61035660048036038101906103519190611ca9565b6109c6565b005b610372600480360381019061036d9190611c26565b6109dc565b005b61037c610a3e565b6040516103899190612229565b60405180910390f35b6103ac60048036038101906103a79190611d83565b610a62565b6040516103b991906120a7565b60405180910390f35b6103ca610aca565b6040516103d79190612025565b60405180910390f35b6103fa60048036038101906103f59190611b93565b610aee565b604051610407919061208c565b60405180910390f35b60007f80ac58cd000000000000000000000000000000000000000000000000000000007bffffffffffffffffffffffffffffffffffffffffffffffffffffffff1916827bffffffffffffffffffffffffffffffffffffffffffffffffffffffff191614806104db57507f5b5e139f000000000000000000000000000000000000000000000000000000007bffffffffffffffffffffffffffffffffffffffffffffffffffffffff1916827bffffffffffffffffffffffffffffffffffffffffffffffffffffffff1916145b806104eb57506104ea82610b82565b5b9050919050565b6060600080546105019061241d565b80601f016020809104026020016040519081016040528092919081815260200182805461052d9061241d565b801561057a5780601f1061054f5761010080835404028352916020019161057a565b820191906000526020600020905b81548152906001019060200180831161055d57829003601f168201915b5050505050905090565b600061058f82610bec565b6004600083815260200190815260200160002060009054906101000a900473ffffffffffffffffffffffffffffffffffffffff169050919050565b60006105d5826107d5565b90508073ffffffffffffffffffffffffffffffffffffffff168373ffffffffffffffffffffffffffffffffffffffff161415610646576040517f08c379a000000000000000000000000000000000000000000000000000000000815260040161063d906121e9565b60405180910390fd5b8073ffffffffffffffffffffffffffffffffffffffff16610665610c37565b73ffffffffffffffffffffffffffffffffffffffff16148061069457506106938161068e610c37565b610aee565b5b6106d3576040517f08c379a00000000000000000000000000000000000000000000000000000000081526004016106ca90612209565b60405180910390fd5b6106dd8383610c3f565b505050565b6106ee33600754610cf8565b6007547f2257f416749d176b8fe4902d411e1d8cb7f94b66a82b9937df5538e96933677e60405160405180910390a2600160075461072c91906122dd565b600781905550565b606061073e6104f2565b905090565b61075461074e610c37565b82610d16565b610793576040517f08c379a000000000000000000000000000000000000000000000000000000000815260040161078a906120c9565b60405180910390fd5b61079e838383610dab565b505050565b6107be838383604051806020016040528060008152506109dc565b505050565b60006107ce826110a5565b9050919050565b6000806107e1836110e6565b9050600073ffffffffffffffffffffffffffffffffffffffff168173ffffffffffffffffffffffffffffffffffffffff161415610853576040517f08c379a000000000000000000000000000000000000000000000000000000000815260040161084a906121c9565b60405180910390fd5b80915050919050565b6108678383836107a3565b505050565b60065481565b6000600754905090565b60008073ffffffffffffffffffffffffffffffffffffffff168273ffffffffffffffffffffffffffffffffffffffff1614156108ed576040517f08c379a00000000000000000000000000000000000000000000000000000000081526004016108e490612189565b60405180910390fd5b600360008373ffffffffffffffffffffffffffffffffffffffff1673ffffffffffffffffffffffffffffffffffffffff168152602001908152602001600020549050919050565b6060600180546109439061241d565b80601f016020809104026020016040519081016040528092919081815260200182805461096f9061241d565b80156109bc5780601f10610991576101008083540402835291602001916109bc565b820191906000526020600020905b81548152906001019060200180831161099f57829003601f168201915b5050505050905090565b6109d86109d1610c37565b8383611123565b5050565b6109ed6109e7610c37565b83610d16565b610a2c576040517f08c379a0000000000000000000000000000000000000000000000000000000008152600401610a23906120c9565b60405180910390fd5b610a3884848484611290565b50505050565b7f000000000000000000000000000000000000000000000000000000000000000081565b6060610a6d82610bec565b6000610a776112ec565b90506000815111610a975760405180602001604052806000815250610ac2565b80610aa184611303565b604051602001610ab2929190612001565b6040516020818303038152906040525b915050919050565b7f000000000000000000000000000000000000000000000000000000000000000081565b6000600560008473ffffffffffffffffffffffffffffffffffffffff1673ffffffffffffffffffffffffffffffffffffffff16815260200190815260200160002060008373ffffffffffffffffffffffffffffffffffffffff1673ffffffffffffffffffffffffffffffffffffffff16815260200190815260200160002060009054906101000a900460ff16905092915050565b60007f01ffc9a7000000000000000000000000000000000000000000000000000000007bffffffffffffffffffffffffffffffffffffffffffffffffffffffff1916827bffffffffffffffffffffffffffffffffffffffffffffffffffffffff1916149050919050565b610bf5816110a5565b610c34576040517f08c379a0000000000000000000000000000000000000000000000000000000008152600401610c2b906121c9565b60405180910390fd5b50565b600033905090565b816004600083815260200190815260200160002060006101000a81548173ffffffffffffffffffffffffffffffffffffffff021916908373ffffffffffffffffffffffffffffffffffffffff160217905550808273ffffffffffffffffffffffffffffffffffffffff16610cb2836107d5565b73ffffffffffffffffffffffffffffffffffffffff167f8c5be1e5ebec7d5bd14f71427d1e84f3dd0314c0f7b2291e5b200ac8c7c3b92560405160405180910390a45050565b610d128282604051806020016040528060008152506113db565b5050565b600080610d22836107d5565b90508073ffffffffffffffffffffffffffffffffffffffff168473ffffffffffffffffffffffffffffffffffffffff161480610d645750610d638185610aee565b5b80610da257508373ffffffffffffffffffffffffffffffffffffffff16610d8a84610584565b73ffffffffffffffffffffffffffffffffffffffff16145b91505092915050565b8273ffffffffffffffffffffffffffffffffffffffff16610dcb826107d5565b73ffffffffffffffffffffffffffffffffffffffff1614610e21576040517f08c379a0000000000000000000000000000000000000000000000000000000008152600401610e1890612109565b60405180910390fd5b600073ffffffffffffffffffffffffffffffffffffffff168273ffffffffffffffffffffffffffffffffffffffff161415610e91576040517f08c379a0000000000000000000000000000000000000000000000000000000008152600401610e8890612149565b60405180910390fd5b610e9e8383836001611436565b8273ffffffffffffffffffffffffffffffffffffffff16610ebe826107d5565b73ffffffffffffffffffffffffffffffffffffffff1614610f14576040517f08c379a0000000000000000000000000000000000000000000000000000000008152600401610f0b90612109565b60405180910390fd5b6004600082815260200190815260200160002060006101000a81549073ffffffffffffffffffffffffffffffffffffffff02191690556001600360008573ffffffffffffffffffffffffffffffffffffffff1673ffffffffffffffffffffffffffffffffffffffff168152602001908152602001600020600082825403925050819055506001600360008473ffffffffffffffffffffffffffffffffffffffff1673ffffffffffffffffffffffffffffffffffffffff16815260200190815260200160002060008282540192505081905550816002600083815260200190815260200160002060006101000a81548173ffffffffffffffffffffffffffffffffffffffff021916908373ffffffffffffffffffffffffffffffffffffffff160217905550808273ffffffffffffffffffffffffffffffffffffffff168473ffffffffffffffffffffffffffffffffffffffff167fddf252ad1be2c89b69c2b068fc378daa952ba7f163c4a11628f55a4df523b3ef60405160405180910390a46110a0838383600161155c565b505050565b60008073ffffffffffffffffffffffffffffffffffffffff166110c7836110e6565b73ffffffffffffffffffffffffffffffffffffffff1614159050919050565b60006002600083815260200190815260200160002060009054906101000a900473ffffffffffffffffffffffffffffffffffffffff169050919050565b8173ffffffffffffffffffffffffffffffffffffffff168373ffffffffffffffffffffffffffffffffffffffff161415611192576040517f08c379a000000000000000000000000000000000000000000000000000000000815260040161118990612169565b60405180910390fd5b80600560008573ffffffffffffffffffffffffffffffffffffffff1673ffffffffffffffffffffffffffffffffffffffff16815260200190815260200160002060008473ffffffffffffffffffffffffffffffffffffffff1673ffffffffffffffffffffffffffffffffffffffff16815260200190815260200160002060006101000a81548160ff0219169083151502179055508173ffffffffffffffffffffffffffffffffffffffff168373ffffffffffffffffffffffffffffffffffffffff167f17307eab39ab6107e8899845ad3d59bd9653f200f220920489ca2b5937696c3183604051611283919061208c565b60405180910390a3505050565b61129b848484610dab565b6112a784848484611562565b6112e6576040517f08c379a00000000000000000000000000000000000000000000000000000000081526004016112dd906120e9565b60405180910390fd5b50505050565b606060405180602001604052806000815250905090565b606060006001611312846116f9565b01905060008167ffffffffffffffff8111156113315761133061250d565b5b6040519080825280601f01601f1916602001820160405280156113635781602001600182028036833780820191505090505b509050600082602001820190505b6001156113d0578080600190039150507f3031323334353637383961626364656600000000000000000000000000000000600a86061a8153600a85816113ba576113b96124af565b5b04945060008514156113cb576113d0565b611371565b819350505050919050565b6113e5838361184c565b6113f26000848484611562565b611431576040517f08c379a0000000000000000000000000000000000000000000000000000000008152600401611428906120e9565b60405180910390fd5b505050565b600181111561155657600073ffffffffffffffffffffffffffffffffffffffff168473ffffffffffffffffffffffffffffffffffffffff16146114ca5780600360008673ffffffffffffffffffffffffffffffffffffffff1673ffffffffffffffffffffffffffffffffffffffff16815260200190815260200160002060008282546114c29190612333565b925050819055505b600073ffffffffffffffffffffffffffffffffffffffff168373ffffffffffffffffffffffffffffffffffffffff16146115555780600360008573ffffffffffffffffffffffffffffffffffffffff1673ffffffffffffffffffffffffffffffffffffffff168152602001908152602001600020600082825461154d91906122dd565b925050819055505b5b50505050565b50505050565b60006115838473ffffffffffffffffffffffffffffffffffffffff16611a6a565b156116ec578373ffffffffffffffffffffffffffffffffffffffff1663150b7a026115ac610c37565b8786866040518563ffffffff1660e01b81526004016115ce9493929190612040565b602060405180830381600087803b1580156115e857600080fd5b505af192505050801561161957506040513d601f19601f820116820180604052508101906116169190611d56565b60015b61169c573d8060008114611649576040519150601f19603f3d011682016040523d82523d6000602084013e61164e565b606091505b50600081511415611694576040517f08c379a000000000000000000000000000000000000000000000000000000000815260040161168b906120e9565b60405180910390fd5b805181602001fd5b63150b7a0260e01b7bffffffffffffffffffffffffffffffffffffffffffffffffffffffff1916817bffffffffffffffffffffffffffffffffffffffffffffffffffffffff1916149150506116f1565b600190505b949350505050565b600080600090507a184f03e93ff9f4daa797ed6e38ed64bf6a1f0100000000000000008310611757577a184f03e93ff9f4daa797ed6e38ed64bf6a1f010000000000000000838161174d5761174c6124af565b5b0492506040810190505b6d04ee2d6d415b85acef81000000008310611794576d04ee2d6d415b85acef8100000000838161178a576117896124af565b5b0492506020810190505b662386f26fc1000083106117c357662386f26fc1000083816117b9576117b86124af565b5b0492506010810190505b6305f5e10083106117ec576305f5e10083816117e2576117e16124af565b5b0492506008810190505b6127108310611811576127108381611807576118066124af565b5b0492506004810190505b60648310611834576064838161182a576118296124af565b5b0492506002810190505b600a8310611843576001810190505b80915050919050565b600073ffffffffffffffffffffffffffffffffffffffff168273ffffffffffffffffffffffffffffffffffffffff1614156118bc576040517f08c379a00000000000000000000000000000000000000000000000000000000081526004016118b3906121a9565b60405180910390fd5b6118c5816110a5565b15611905576040517f08c379a00000000000000000000000000000000000000000000000000000000081526004016118fc90612129565b60405180910390fd5b611913600083836001611436565b61191c816110a5565b1561195c576040517f08c379a000000000000000000000000000000000000000000000000000000000815260040161195390612129565b60405180910390fd5b6001600360008473ffffffffffffffffffffffffffffffffffffffff1673ffffffffffffffffffffffffffffffffffffffff16815260200190815260200160002060008282540192505081905550816002600083815260200190815260200160002060006101000a81548173ffffffffffffffffffffffffffffffffffffffff021916908373ffffffffffffffffffffffffffffffffffffffff160217905550808273ffffffffffffffffffffffffffffffffffffffff16600073ffffffffffffffffffffffffffffffffffffffff167fddf252ad1be2c89b69c2b068fc378daa952ba7f163c4a11628f55a4df523b3ef60405160405180910390a4611a6660008383600161155c565b5050565b6000808273ffffffffffffffffffffffffffffffffffffffff163b119050919050565b6000611aa0611a9b84612269565b612244565b905082815260208101848484011115611abc57611abb612541565b5b611ac78482856123db565b509392505050565b600081359050611ade8161282e565b92915050565b600081359050611af381612845565b92915050565b600081359050611b088161285c565b92915050565b600081519050611b1d8161285c565b92915050565b600082601f830112611b3857611b3761253c565b5b8135611b48848260208601611a8d565b91505092915050565b600081359050611b6081612873565b92915050565b600060208284031215611b7c57611b7b61254b565b5b6000611b8a84828501611acf565b91505092915050565b60008060408385031215611baa57611ba961254b565b5b6000611bb885828601611acf565b9250506020611bc985828601611acf565b9150509250929050565b600080600060608486031215611bec57611beb61254b565b5b6000611bfa86828701611acf565b9350506020611c0b86828701611acf565b9250506040611c1c86828701611b51565b9150509250925092565b60008060008060808587031215611c4057611c3f61254b565b5b6000611c4e87828801611acf565b9450506020611c5f87828801611acf565b9350506040611c7087828801611b51565b925050606085013567ffffffffffffffff811115611c9157611c90612546565b5b611c9d87828801611b23565b91505092959194509250565b60008060408385031215611cc057611cbf61254b565b5b6000611cce85828601611acf565b9250506020611cdf85828601611ae4565b9150509250929050565b60008060408385031215611d0057611cff61254b565b5b6000611d0e85828601611acf565b9250506020611d1f85828601611b51565b9150509250929050565b600060208284031215611d3f57611d3e61254b565b5b6000611d4d84828501611af9565b91505092915050565b600060208284031215611d6c57611d6b61254b565b5b6000611d7a84828501611b0e565b91505092915050565b600060208284031215611d9957611d9861254b565b5b6000611da784828501611b51565b91505092915050565b611db981612367565b82525050565b611dc881612379565b82525050565b6000611dd98261229a565b611de381856122b0565b9350611df38185602086016123ea565b611dfc81612550565b840191505092915050565b6000611e12826122a5565b611e1c81856122c1565b9350611e2c8185602086016123ea565b611e3581612550565b840191505092915050565b6000611e4b826122a5565b611e5581856122d2565b9350611e658185602086016123ea565b80840191505092915050565b6000611e7e602d836122c1565b9150611e8982612561565b604082019050919050565b6000611ea16032836122c1565b9150611eac826125b0565b604082019050919050565b6000611ec46025836122c1565b9150611ecf826125ff565b604082019050919050565b6000611ee7601c836122c1565b9150611ef28261264e565b602082019050919050565b6000611f0a6024836122c1565b9150611f1582612677565b604082019050919050565b6000611f2d6019836122c1565b9150611f38826126c6565b602082019050919050565b6000611f506029836122c1565b9150611f5b826126ef565b604082019050919050565b6000611f736020836122c1565b9150611f7e8261273e565b602082019050919050565b6000611f966018836122c1565b9150611fa182612767565b602082019050919050565b6000611fb96021836122c1565b9150611fc482612790565b604082019050919050565b6000611fdc603d836122c1565b9150611fe7826127df565b604082019050919050565b611ffb816123d1565b82525050565b600061200d8285611e40565b91506120198284611e40565b91508190509392505050565b600060208201905061203a6000830184611db0565b92915050565b60006080820190506120556000830187611db0565b6120626020830186611db0565b61206f6040830185611ff2565b81810360608301526120818184611dce565b905095945050505050565b60006020820190506120a16000830184611dbf565b92915050565b600060208201905081810360008301526120c18184611e07565b905092915050565b600060208201905081810360008301526120e281611e71565b9050919050565b6000602082019050818103600083015261210281611e94565b9050919050565b6000602082019050818103600083015261212281611eb7565b9050919050565b6000602082019050818103600083015261214281611eda565b9050919050565b6000602082019050818103600083015261216281611efd565b9050919050565b6000602082019050818103600083015261218281611f20565b9050919050565b600060208201905081810360008301526121a281611f43565b9050919050565b600060208201905081810360008301526121c281611f66565b9050919050565b600060208201905081810360008301526121e281611f89565b9050919050565b6000602082019050818103600083015261220281611fac565b9050919050565b6000602082019050818103600083015261222281611fcf565b9050919050565b600060208201905061223e6000830184611ff2565b92915050565b600061224e61225f565b905061225a828261244f565b919050565b6000604051905090565b600067ffffffffffffffff8211156122845761228361250d565b5b61228d82612550565b9050602081019050919050565b600081519050919050565b600081519050919050565b600082825260208201905092915050565b600082825260208201905092915050565b600081905092915050565b60006122e8826123d1565b91506122f3836123d1565b9250827fffffffffffffffffffffffffffffffffffffffffffffffffffffffffffffffff0382111561232857612327612480565b5b828201905092915050565b600061233e826123d1565b9150612349836123d1565b92508282101561235c5761235b612480565b5b828203905092915050565b6000612372826123b1565b9050919050565b60008115159050919050565b60007fffffffff0000000000000000000000000000000000000000000000000000000082169050919050565b600073ffffffffffffffffffffffffffffffffffffffff82169050919050565b6000819050919050565b82818337600083830152505050565b60005b838110156124085780820151818401526020810190506123ed565b83811115612417576000848401525b50505050565b6000600282049050600182168061243557607f821691505b60208210811415612449576124486124de565b5b50919050565b61245882612550565b810181811067ffffffffffffffff821117156124775761247661250d565b5b80604052505050565b7f4e487b7100000000000000000000000000000000000000000000000000000000600052601160045260246000fd5b7f4e487b7100000000000000000000000000000000000000000000000000000000600052601260045260246000fd5b7f4e487b7100000000000000000000000000000000000000000000000000000000600052602260045260246000fd5b7f4e487b7100000000000000000000000000000000000000000000000000000000600052604160045260246000fd5b600080fd5b600080fd5b600080fd5b600080fd5b6000601f19601f8301169050919050565b7f4552433732313a2063616c6c6572206973206e6f7420746f6b656e206f776e6560008201527f72206f7220617070726f76656400000000000000000000000000000000000000602082015250565b7f4552433732313a207472616e7366657220746f206e6f6e20455243373231526560008201527f63656976657220696d706c656d656e7465720000000000000000000000000000602082015250565b7f4552433732313a207472616e736665722066726f6d20696e636f72726563742060008201527f6f776e6572000000000000000000000000000000000000000000000000000000602082015250565b7f4552433732313a20746f6b656e20616c7265616479206d696e74656400000000600082015250565b7f4552433732313a207472616e7366657220746f20746865207a65726f2061646460008201527f7265737300000000000000000000000000000000000000000000000000000000602082015250565b7f4552433732313a20617070726f766520746f2063616c6c657200000000000000600082015250565b7f4552433732313a2061646472657373207a65726f206973206e6f74206120766160008201527f6c6964206f776e65720000000000000000000000000000000000000000000000602082015250565b7f4552433732313a206d696e7420746f20746865207a65726f2061646472657373600082015250565b7f4552433732313a20696e76616c696420746f6b656e2049440000000000000000600082015250565b7f4552433732313a20617070726f76616c20746f2063757272656e74206f776e6560008201527f7200000000000000000000000000000000000000000000000000000000000000602082015250565b7f4552433732313a20617070726f76652063616c6c6572206973206e6f7420746f60008201527f6b656e206f776e6572206f7220617070726f76656420666f7220616c6c000000602082015250565b61283781612367565b811461284257600080fd5b50565b61284e81612379565b811461285957600080fd5b50565b61286581612385565b811461287057600080fd5b50565b61287c816123d1565b811461288757600080fd5b5056fea2646970667358221220324ecd719ac32b5a147672370c3b9b888b56bd89bd63d03a464cafa3032e6f3564736f6c63430008070033",
  "linkReferences": {},
  "deployedLinkReferences": {}
}